:100000000C9494000C94B3060C94B3060C94B306B1
:100010000C94B3060C94B3060C94B3060C94B3067C
:100020000C94B3060C94B3060C94B3060C94B3066C
:100030000C94B3060C94B3060C94B3060C94B3065C
:100040000C94B3060C94B3060C94B3060C94B3064C
:100050000C94B306F401FC01000207020E02140224
:100060001B022302290232023A02420249024F02D3
:1000700056025D0267026702670267026702670253
:100080006702670267026702670267026702670228
:100090006702670267026702670267026702670218
:1000A0006702670267026702670267026702670208
:1000B00067026702670267026702670267026702F8
:1000C00067026702670267026702670267026702E8
:1000D0006702670267023A02420249024F02560271
:1000E0005D026702670267026702670267026702D2
:1000F00067026702670267026702670267026702B8
:1001000067026702670267026702670267026702A7
:100110006702670267023A02420249024F02560230
:100120005D0200600079800011241FBECFE5D8E099
:10013000DEBFCDBFE2E2F1E041E017C0B591A5918D
:1001400035912591059107FD0CC095918591EF01A1
:10015000F92FE82F05900D92A217B307D9F7FE01EA
:1001600004C01D92A217B307E1F7E732F40731F795
:0C0170000E9470020C947606F894FFCFF9
:10017C002F923F924F925F926F927F928F929F92AB
:10018C00AF92BF92CF92DF92EF92FF920F931F9399
:10019C00CF93DF9300D000D000D0CDB7DEB74C01A9
:1001AC00B62E4983280139010E94240680E29EE480
:1001BC000197F1F7411451046104710409F4D8C09A
:1001CC002981422F50E01A01220C331C1A82198209
:1001DC0000E911E0AA24A39480E090E09E838D8333
:1001EC006B2DC4010E940B0688EE93E0B1010E94B6
:1001FC003D06072E000C880B990B0E94B3036983F4
:10020C007A838B839C8320E030E04AE755E40E949C
:10021C00AC066B017C0120E030E040E85FE30E941B
:10022C00A206882334F120E03FEF4FE757E4C701E3
:10023C00B6010E94A7061816BCF420E030E040E29C
:10024C0051E469817A818B819C810E94AC060E9469
:10025C002A046115710509F460C0C8010197F1F712
:10026C0061507109D1F775C0C701B6010E942A040B
:10027C0002C06A2D70E0CB010197F1F76B2DC40120
:10028C000E94240620E030E040E85FE3C701B6019D
:10029C000E94A20688232CF120E03FEF4FE757E4A1
:1002AC00C701B6010E94A7061816B4F420E030E08E
:1002BC0040E251E469817A818B819C810E94AC0679
:1002CC000E942A0461157105B9F0C8010197F1F774
:1002DC0061507109D1F710C0C701B6010E942A0400
:1002EC0008C06A2D70E005C06A2D70E002C06A2D4E
:1002FC0070E0CB010197F1F72D813E812F5F3F4FCD
:10030C003E832D83C901330FAA0BBB0B84159505B6
:10031C00A605B70508F464CF2BC06B2DC4010E9451
:10032C00240620E030E040E85FE3C701B6010E94FC
:10033C00A2068823CCF2E0CF20E030E040E251E48A
:10034C0069817A818B819C810E94AC060E942A046F
:10035C00BCCF6B2DC4010E94240620E030E040E8A5
:10036C005FE3C701B6010E94A20688232CF7BFCF1A
:10037C0026960FB6F894DEBF0FBECDBFDF91CF919E
:10038C001F910F91FF90EF90DF90CF90BF90AF90A7
:10039C009F908F907F906F905F904F903F902F9099
:0203AC000895B2
:1003AE00CF93DF93CDB7DEB728970FB6F894DEBFA5
:1003BE000FBECDBFDE01119628E0FD0111922A95E8
:1003CE00E9F74887462F50E04736510508F078C0C8
:1003DE00FA01E65DFF4F0C949C0621E029832A83E7
:1003EE002B832C832D832E8366C021E02A832B83BF
:1003FE0062C021E029832A832C832D832F835BC047
:10040E0021E029832A832B832C832F8354C021E060
:10041E002A832B832E832F834EC021E029832B83A7
:10042E002C832E832F8347C021E029832B832C839B
:10043E002D832E832F833FC021E029832A832B8394
:10044E002E8339C021E029832A832B832C832D838D
:10045E002E832F8330C021E029832A832B832C8384
:10046E002E832F8328C021E029832A832B832D837B
:10047E002E832F8320C021E02B832C832D832E836C
:10048E002F8319C021E029832C832D832E8313C043
:10049E0021E02A832B832C832D832F830CC021E014
:1004AE0029832C832D832E832F8305C021E029835E
:1004BE002D832E832F83BE016F5F7F4F0E945904C1
:1004CE0028960FB6F894DEBF0FBECDBFDF91CF9149
:0204DE0008957F
:1004E0001F9287E08F9381E48F9396E09F938F9381
:1004F00095E09F938F9394E09F938F930F2EF3E05B
:100500008F2EF02D0F2EF1E4AF2EF02D6894CC2419
:10051000C1F80F2EF1E4EF2EF02D01E021E440E0D0
:1005200061E480E690E00E94660343E062E481E7D4
:1005300090E00E94EE0342E063E483E790E00E94D3
:10054000EE0347E063E485E790E00E94EE0346E0B7
:1005500064E487E790E00E94EE0361E082E00E949D
:10056000AB0561E082E00E942B0580E49CE90197E5
:10057000F1F740E06FE080E690E00E94D7018DB790
:100580009EB709960FB6F8949EBF0FBE8DBF0FE0C1
:1005900010E0C0E9D1E007C0C801880F991F8F584B
:1005A0009F4F0E94C90480E197E2FE013197F1F765
:1005B0000197D9F70115110599F404E010E020E046
:1005C00030E048E064E081E790E00E94BE0040E057
:1005D0006FE080E690E00E94D7010FE010E0E3CFEB
:1005E0000150110940E0602F80E690E00E94D701A1
:0805F00004301105C0F6D0CF64
:1005F8000FC00E94880638F00E948F0620F09523CD
:1006080011F00C9496060C94B00611240C948206F2
:100618000E94A70470F3959FC1F3950F50E0551FF2
:10062800629FF001729FBB27F00DB11D639FAA273F
:10063800F00DB11DAA1F649F6627B00DA11D661F8E
:10064800829F2227B00DA11D621F739FB00DA11DAF
:10065800621F839FA00D611D221F749F3327A00D69
:10066800611D231F849F600D211D822F762F6A2F05
:1006780011249F5750409AF0F1F088234AF0EE0F6A
:10068800FF1FBB1F661F771F881F91505040A9F797
:100698009E3F510580F00C9496060C9482065F3FAD
:1006A800E4F3983ED4F3869577956795B795F795D3
:1006B800E7959F5FC1F7FE2B880F911D969587954B
:0406C80097F9089501
:1006CC006F927F928F92AF92CF92EF920F931F9374
:1006DC00CF93DF93CDB7DEB73C01122F0E94EE0310
:1006EC00402F612FC30102960E94EE034C2D6E2DFC
:1006FC00C30104960E94EE03482D6A2DC301069691
:10070C000E94EE034E856D85C30108960E94EE0390
:10071C0048896F85C3010A960E94EE034A8969894C
:10072C00C3010C960E94EE034C896B89C3010E9693
:10073C000E94EE038D89F301808BC3010E94EA04B1
:10074C00DF91CF911F910F91EF90CF90AF908F9041
:06075C007F906F900895EC
:10076200E89409C097FB3EF4909580957095619549
:100772007F4F8F4F9F4F9923A9F0F92F96E9BB27FF
:100782009395F695879577956795B795F111F8CF7B
:10079200FAF4BB0F11F460FF1BC06F5F7F4F8F4FE6
:1007A2009F4F16C0882311F096E911C0772321F0DC
:1007B2009EE8872F762F05C0662371F096E8862F74
:1007C20070E060E02AF09A95660F771F881FDAF7CB
:0A07D200880F9695879597F9089512
:1007DC00CF93DF93EC016234A1F018F4613431F063
:1007EC0030C06334C9F0643411F12BC081E48883C8
:1007FC00498361E0842F0E948B05CE010E94EA049C
:10080C0020C082E48883498361E0842F0E94AB0579
:10081C00CE010E94EA0415C083E48883498361E019
:10082C00842F0E94CB05CE010E94EA040AC084E406
:10083C008883498361E0842F0E94EB05CE010E94DE
:08084C00EA04DF91CF91089549
:100854000E94AF0488F09F5798F0B92F9927B75199
:10086400B0F0E1F0660F771F881F991F1AF0BA9550
:10087400C9F714C0B13091F00E948106B1E0089527
:100884000C948106672F782F8827B85F39F0B93F19
:10089400CCF3869577956795B395D9F73EF4909503
:0E08A4008095709561957F4F8F4F9F4F0895FF
:1008B200CF92DF92EF92FF920F931F93CF93DF932A
:1008C2007C018B01EC016C0180E1C80ED11CF801A6
:1008D20091918F01F7018089981721F0CE010E9432
:1008E200C90403C0CE010E94EA042296CC15DD059C
:1008F20071F7DF91CF911F910F91FF90EF90DF90F1
:04090200CF900895F5
:10090600990F0008550FAA0BE0E8FEEF161617061A
:10091600E807F907C0F012161306E407F50798F082
:10092600621B730B840B950B39F40A2661F0232B9B
:10093600242B252B21F408950A2609F4A140A69517
:080946008FEF811D811D089552
:10094E0057FD9058440F551F59F05F3F71F0479572
:10095E00880F97FB991F61F09F3F79F08795089557
:10096E00121613061406551FF2CF4695F1DF08C076
:10097E00161617061806991FF1CF86957105610593
:04098E00089408952C
:10099200FC019081923471F018F4913431F0089591
:1009A200933469F0943481F0089561E081810E946A
:1009B2000B05089561E081810E942B05089561E095
:1009C20081810E944B05089561E081810E946B053F
:0209D200089586
:1009D400FC019081923471F018F4913431F008954F
:1009E400933469F0943481F0089560E081810E9429
:1009F4000B05089560E081810E942B05089560E055
:100A040081810E944B05089560E081810E946B05FD
:020A1400089543
:100A1600662319F0613079F008954BB321E030E098
:100A2600B90102C0660F771F8A95E2F7CB01809560
:100A360084238BBB08954BB321E030E0B90102C09B
:100A4600660F771F8A95E2F7CB01842B8BBB08953F
:100A5600662319F0613079F0089548B321E030E05B
:100A6600B90102C0660F771F8A95E2F7CB01809520
:100A7600842388BB089548B321E030E0B90102C061
:100A8600660F771F8A95E2F7CB01842B88BB089502
:100A9600662319F0613079F0089545B321E030E01E
:100AA600B90102C0660F771F8A95E2F7CB018095E0
:100AB600842385BB089545B321E030E0B90102C027
:100AC600660F771F8A95E2F7CB01842B85BB0895C5
:100AD600662319F0613079F0089542B321E030E0E1
:100AE600B90102C0660F771F8A95E2F7CB018095A0
:100AF600842382BB089542B321E030E0B90102C0ED
:100B0600660F771F8A95E2F7CB01842B82BB089587
:100B1600662319F0613079F008954AB321E030E098
:100B2600B90102C0660F771F8A95E2F7CB0180955F
:100B360084238ABB08954AB321E030E0B90102C09C
:100B4600660F771F8A95E2F7CB01842B8ABB08953F
:100B5600662319F0613079F0089547B321E030E05B
:100B6600B90102C0660F771F8A95E2F7CB0180951F
:100B7600842387BB089547B321E030E0B90102C062
:100B8600660F771F8A95E2F7CB01842B87BB089502
:100B9600662319F0613079F0089544B321E030E01E
:100BA600B90102C0660F771F8A95E2F7CB018095DF
:100BB600842384BB089544B321E030E0B90102C028
:100BC600660F771F8A95E2F7CB01842B84BB0895C5
:100BD600662319F0613079F0089541B321E030E0E1
:100BE600B90102C0660F771F8A95E2F7CB0180959F
:100BF600842381BB089541B321E030E0B90102C0EE
:100C0600660F771F8A95E2F7CB01842B81BB089587
:100C16000F931F93CF93DF93662371F08C01EC0142
:100C260070E0660F771F060F171FCE010E94C904DA
:100C36002296C017D107C9F7DF91CF911F910F9167
:020C460008950F
:100C48000F931F93CF93DF93662371F08C01EC0110
:100C580070E0660F771F060F171FCE010E94EA0487
:100C68002296C017D107C9F7DF91CF911F910F9135
:020C78000895DD
:100C7A0097FB072E16F4009407D077FD09D00E943F
:100C8A00510607FC05D03EF4909581959F4F089533
:080C9A00709561957F4F0895EC
:100CA200AA1BBB1B51E107C0AA1FBB1FA617B70790
:100CB20010F0A61BB70B881F991F5A95A9F78095AC
:080CC2009095BC01CD010895DD
:100CCA00092E0394000C11F4882352F0BB0F40F450
:100CDA00BF2B11F460FF04C06F5F7F4F8F4F9F4F90
:020CEA0008956B
:100CEC00EC010E94B8060E94B706CE010E94B9061C
:060CFC00CE010E94B506C6
:0E0D0200E894BB2766277727CB0197F9089561
:0E0D100000240A941616170618060906089500
:0E0D1E0000240A941216130614060506089502
:0C0D2C0097F99F6780E870E060E0089590
:0C0D3800EE0FFF1F0590F491E02D0994D0
:0A0D44000E94830408F481E0089582
:0A0D4E000E94830408F48FEF08955B
:080D58000E94FC020C946506E8
:060D60009FEF80EC0895F6
:040D66000C940000E9
:040D6A000E94BC0027
:020D6E000895E6
:020D70000895E4
:020D72000895E2
:00000001FF
