:100000000C9430000C94DC030C94DC030C94DC03A3
:100010000C94DC030C94DC030C94DC030C94DC03E4
:100020000C94DC030C94DC030C94DC030C94DC03D4
:100030000C94DC030C94DC030C94DC030C94DC03C4
:100040000C94DC030C94DC030C94DC030C94DC03B4
:100050000C94DC03006000670007C6006700748032
:1000600011241FBECFE5D8E0DEBFCDBFE4E5F0E050
:1000700040E017C0B591A59135912591059107FDF7
:100080000CC095918591EF01F92FE82F05900D9205
:10009000A217B307D9F7FE0104C01D92A217B30738
:1000A000E1F7E036F40731F70E945A000C94D103CF
:0400B000F894FFCFF2
:1000B400A12C0F2EF5E1CF2EF02D0F2EF4E1EF2E13
:1000C400F02D03E122E141E160E187E690E00E9446
:1000D400DE011F92812CAA24A3940F2EFAE0CF2EC6
:1000E400F02D0F2EF9E0EF2EF02D04E025E046E090
:1000F40067E08EE690E00E94D300C0E4DCE9CE0124
:100104000197F1F760E670E08EE690E00E94AA03A2
:1001140060E18EE690E00E94340160E18EE690E0BA
:100124000E9434012197F1F70F9000E010E0C0E93C
:10013400D1E025C062E08EE690E00E94340168E1DF
:100144008EE690E00E94340168E18EE690E00E9421
:10015400340168E18EE690E00E94340168E18EE6A5
:1001640090E00E94340168E18EE690E00E94340140
:1001740068E18EE690E00E94340100E010E06CE15A
:100184008EE690E00E94340184EC99E0FE01319700
:10019400F1F70197D9F70F5F1F4F0031110579F778
:0201A400C9CFC1
:1001A6004F925F926F927F928F92AF92CF92EF9221
:1001B6000F931F93CF93DF93CDB7DEB73C01FC01BE
:1001C6000083218342836383E482C5828C012C01F0
:1001D600F4E04F0E511C61E0F80181918F010E94FD
:1001E6004F0204151505B9F761E08E2D0E944F02E6
:1001F60061E08C2D0E944F0262E0C3010E9434012F
:100206006A2D660F660F660F6062C3010E94340195
:1002160008EC10E0C8010197F1F7682D660F8F858D
:100226008C60682BC3010E943401C8010197F1F765
:1002360061E0C3010E94340180EE9EE20197F1F76E
:1002460066E0C3010E943401DF91CF911F910F91A7
:10025600EF90CF90AF908F907F906F905F904F9080
:020266000895F9
:100268008F929F92AF92BF92CF92DF92EF92FF92BE
:100278000F931F93CF93DF936C01C62F60E0FC01AF
:1002880084810E941B02860156016894882482F8A2
:10029800912CD0E07E01BE01082C02C075956795AF
:1002A8000A94E2F76170F50181915F010E941B02D7
:1002B800FFEF8F1A9F0A88E08816910459F7C60144
:1002C8000E94BF03C0E0D0E0B7010C2E02C07595B4
:1002D80067950A94E2F76170F80181918F010E9495
:1002E8001B022196C430D10579F7C6010E94BF03CD
:1002F800DF91CF911F910F91FF90EF90DF90CF90FA
:0A030800BF90AF909F908F90089572
:100312008F929F92AF92BF92CF92DF92EF92FF9213
:100322000F931F93CF93DF936C01C62F61E0FC0103
:1003320084810E941B02860156016894882482F8F7
:10034200912CD0E07E01BE01082C02C07595679504
:100352000A94E2F76170F50181915F010E941B022C
:10036200FFEF8F1A9F0A88E08816910459F7C60199
:100372000E94BF03C0E0D0E0B7010C2E02C0759509
:1003820067950A94E2F76170F80181918F010E94EA
:100392001B022196C430D10579F7C6010E94BF0322
:1003A200DF91CF911F910F91FF90EF90DF90CF904F
:0A03B200BF90AF909F908F900895C8
:1003BC00AF92CF92EF920F93CF93DF93FC01892BE7
:1003CC0069F1C22FD42F862F60834183228303834C
:1003DC00E482C582A68260E00E944F0260E08D2F0D
:1003EC000E944F0260E08C2F0E944F0261E0802F30
:1003FC000E944F0261E08E2D0E944F0261E08C2D15
:10040C000E944F026A2D802F0E941B026A2D8E2D96
:10041C000E941B026A2D8C2D0E941B02DF91CF9132
:0A042C000F91EF90CF90AF9008956C
:100436001F93CF93DF9300D0CDB7DEB7162FAE0153
:100446004E5F5F4FBE016F5F7F4F0E9483028981BF
:10045600823471F018F4813431F018C0833469F0B5
:10046600843481F013C0612F8A810E94AA020EC0D3
:10047600612F8A810E94CA0209C0612F8A810E9467
:10048600EA0204C0612F8A810E940A030F900F902E
:08049600DF91CF911F91089541
:10049E001F93CF93DF9300D0CDB7DEB7162FAE01EB
:1004AE004E5F5F4FBE016F5F7F4F0E948302898157
:1004BE00823471F018F4813431F018C0833469F04D
:1004CE00843481F013C0612F8A810E942A030EC0EA
:1004DE00612F8A810E944A0309C0612F8A810E947E
:1004EE006A0304C0612F8A810E948A030F900F90C5
:0804FE00DF91CF911F910895D9
:100506006115710519F14115510501F1883030F475
:1005160091E4FB019083FA0180830895803138F4D9
:1005260092E4FB0190838850FA0180830895883114
:1005360038F493E4FB0190838051FA018083089597
:0E05460094E4FB0190838851FA0180830895AC
:10055400662319F0613079F008954BB321E030E05F
:10056400B90102C0660F771F8A95E2F7CB01809527
:1005740084238BBB08954BB321E030E0B90102C062
:10058400660F771F8A95E2F7CB01842B8BBB089506
:10059400662319F0613079F0089548B321E030E022
:1005A400B90102C0660F771F8A95E2F7CB018095E7
:1005B400842388BB089548B321E030E0B90102C028
:1005C400660F771F8A95E2F7CB01842B88BB0895C9
:1005D400662319F0613079F0089545B321E030E0E5
:1005E400B90102C0660F771F8A95E2F7CB018095A7
:1005F400842385BB089545B321E030E0B90102C0EE
:10060400660F771F8A95E2F7CB01842B85BB08958B
:10061400662319F0613079F0089542B321E030E0A7
:10062400B90102C0660F771F8A95E2F7CB01809566
:10063400842382BB089542B321E030E0B90102C0B3
:10064400660F771F8A95E2F7CB01842B82BB08954E
:10065400662319F0613079F008954AB321E030E05F
:10066400B90102C0660F771F8A95E2F7CB01809526
:1006740084238ABB08954AB321E030E0B90102C063
:10068400660F771F8A95E2F7CB01842B8ABB089506
:10069400662319F0613079F0089547B321E030E022
:1006A400B90102C0660F771F8A95E2F7CB018095E6
:1006B400842387BB089547B321E030E0B90102C029
:1006C400660F771F8A95E2F7CB01842B87BB0895C9
:1006D400662319F0613079F0089544B321E030E0E5
:1006E400B90102C0660F771F8A95E2F7CB018095A6
:1006F400842384BB089544B321E030E0B90102C0EF
:10070400660F771F8A95E2F7CB01842B84BB08958B
:10071400662319F0613079F0089541B321E030E0A7
:10072400B90102C0660F771F8A95E2F7CB01809565
:10073400842381BB089541B321E030E0B90102C0B4
:10074400660F771F8A95E2F7CB01842B81BB08954E
:100754000F931F93CF93DF93EB016881662341F0DE
:100764008C012196C8010E94890169916111FACF17
:0A077400DF91CF911F910F910895BE
:10077E00CF93DF93EC0161E08D810E941B0280E438
:10078E009FE10197F1F760E08D810E941B02DF91DE
:04079E00CF9108955A
:1007A200EC010E94E1030E94E003CE010E94E203F9
:0607B200CE010E94DE03EF
:0407B8000C9400009D
:0407BC000E9458003F
:0207C00008959A
:0207C200089598
:0207C400089596
:0707C60048656C6C6F210017
:00000001FF
