:100000000C9494000C9424050C9424050C94240561
:100010000C9424050C9424050C9424050C942405BC
:100020000C9424050C9424050C9424050C942405AC
:100030000C9424050C9424050C9424050C9424059C
:100040000C9424050C9424050C9424050C9424058C
:100050000C942405800188018C0193019A01A00170
:10006000A701AF01B501BE01C601CE01D501DB017B
:10007000E201E901F301F301F301F301F301F301FB
:10008000F301F301F301F301F301F301F301F301D0
:10009000F301F301F301F301F301F301F301F301C0
:1000A000F301F301F301F301F301F301F301F301B0
:1000B000F301F301F301F301F301F301F301F301A0
:1000C000F301F301F301F301F301F301F301F30190
:1000D000F301F301F301C601CE01D501DB01E20119
:1000E000E901F301F301F301F301F301F301F3017A
:1000F000F301F301F301F301F301F301F301F30160
:10010000F301F301F301F301F301F301F301F3014F
:10011000F301F301F301C601CE01D501DB01E201D8
:10012000E90100600070800011241FBECFE5D8E017
:10013000DEBFCDBFE2E2F1E041E017C0B591A5918D
:1001400035912591059107FD0CC095918591EF01A1
:10015000F92FE82F05900D92A217B307D9F7FE01EA
:1001600004C01D92A217B307E1F7E732F40731F795
:0C0170000E9443020C940705F894FFCF96
:10017C001F93CF93DF93EC011E8188810E9428038B
:10018C0091E0181390E0992319F161E08E818111AF
:10019C0060E08B810E94C0021E8188810E9428032E
:1001AC0091E0811390E0992309F469C061E08E819C
:1001BC00811160E08C810E94C0021E8188810E94A6
:1001CC00280391E0811390E091115BC012E064C0B0
:1001DC001E8189810E94280391E0811390E099236C
:1001EC0019F161E08E81811160E08B810E94C00267
:1001FC001E8189810E94280391E0811390E099234C
:10020C0009F441C061E08E81811160E08C810E9413
:10021C00C0021E8189810E94280391E0811390E025
:10022C00911133C015E038C01E818A810E942803C9
:10023C0091E0811390E0992351F161E08E8181115D
:10024C0060E08B810E94C0021E818A810E9428037B
:10025C0091E0811390E09923E1F061E08E818111AE
:10026C0060E08C810E94C0021E818A810E9428035A
:10027C0091E0811390E091110EC018E00DC011E0D7
:10028C000BC013E009C014E007C016E005C01FEF57
:10029C0003C017E001C019E06E818B810E94C0027F
:1002AC006E818C810E94C0026E818D810E94C00281
:0A02BC00812FDF91CF911F9108956B
:1002C600CF93DF93CDB7DEB728970FB6F894DEBF8E
:1002D6000FBECDBFDE01119628E0FD0111922A95D1
:1002E600E9F74887462F50E04736510508F078C0B1
:1002F600FA01E65DFF4F0C941E0521E029832A834F
:100306002B832C832D832E8366C021E02A832B83A7
:1003160062C021E029832A832C832D832F835BC02F
:1003260021E029832A832B832C832F8354C021E049
:100336002A832B832E832F834EC021E029832B8390
:100346002C832E832F8347C021E029832B832C8384
:100356002D832E832F833FC021E029832A832B837D
:100366002E8339C021E029832A832B832C832D8376
:100376002E832F8330C021E029832A832B832C836D
:100386002E832F8328C021E029832A832B832D8364
:100396002E832F8320C021E02B832C832D832E8355
:1003A6002F8319C021E029832C832D832E8313C02C
:1003B60021E02A832B832C832D832F830CC021E0FD
:1003C60029832C832D832E832F8305C021E0298347
:1003D6002D832E832F83BE016F5F7F4F0E945603AE
:1003E60028960FB6F894DEBF0FBECDBFDF91CF9132
:0203F600089568
:1003F8006F927F928F92AF92CF92EF92FF920F936C
:100408001F93CF93DF93CDB7DEB73C01F42E122FA5
:100418000E94CD046F2DC30101960E94CD04612F67
:10042800C30102960E94CD04602FC30103960E9467
:10043800CD046E2DC30104960E94CD046C2DC3011A
:1004480005960E94CD046A2DC30106960E94CD042C
:10045800682DC30107960E94CD048E85F30180871D
:10046800C3010E94A703DF91CF911F910F91FF90C5
:0E047800EF90CF90AF908F907F906F9008958F
:100486001F920F2EF7E08F2EF02D0F2EF6E0AF2ED7
:10049600F02D0F2EF5E0CF2EF02D6894EE24E2F825
:1004A60003E022E041E060E080E690E00E94FC018B
:1004B600A12C0F2EF5E1CF2EF02D0F2EF4E1EF2E0D
:1004C600F02D03E122E141E160E189E690E00E943E
:1004D600830280E49CE90197F1F70F9089E690E0AA
:1004E6000E94BE008F3F39F040E0682F80E690E022
:1004F6000E946301F3CF80E690E00E94A703EECF4F
:10050600AF92CF92EF920F93CF93DF93FC01892B9B
:1005160069F1C22FD42F862F608341832283038300
:10052600E482C582A68260E00E94F40260E08D2F1C
:100536000E94F40260E08C2F0E94F40261E0802F9A
:100546000E94F40261E08E2D0E94F40261E08C2D7F
:100556000E94F4026A2D802F0E94C0026A2D8E2D01
:100566000E94C0026A2D8C2D0E94C002DF91CF919D
:0A0576000F91EF90CF90AF90089521
:100580001F93CF93DF9300D0CDB7DEB7162FAE0108
:100590004E5F5F4FBE016F5F7F4F0E948003898176
:1005A000823471F018F4813431F018C0833469F06A
:1005B000843481F013C0612F8A810E94CD030EC064
:1005C000612F8A810E94ED0309C0612F8A810E94F8
:1005D0000D0404C0612F8A810E942D040F900F909A
:0805E000DF91CF911F910895F6
:1005E8001F93CF93DF9300D0CDB7DEB7162FAE01A0
:1005F8004E5F5F4FBE016F5F7F4F0E94800389810E
:10060800823471F018F4813431F018C0833469F001
:10061800843481F013C0612F8A810E944D040EC07A
:10062800612F8A810E946D0409C0612F8A810E940E
:100638008D0404C0612F8A810E94AD040F900F9031
:08064800DF91CF911F9108958D
:10065000CF93DF9300D0CDB7DEB7AE014E5F5F4FD3
:10066000BE016F5F7F4F0E9480038981823469F0F1
:1006700018F4813431F015C0833459F0843469F0B2
:1006800010C08A810E94DB040CC08A810E94E604AB
:1006900008C08A810E94F10404C08A810E94FC047F
:0C06A00000C00F900F90DF91CF910895E3
:1006AC00CF92DF92EF92FF920F931F93CF93DF9332
:1006BC007C018B01EC016C0188E0C80ED11CF801A7
:1006CC0091918F01F7018085981721F0CE010E943E
:1006DC00120503C0CE010E9418052196CC15DD052C
:1006EC0071F7DF91CF911F910F91FF90EF90DF90F9
:0406FC00CF900895FE
:100700006115710519F14115510501F1883030F479
:1007100091E4FB019083FA0180830895803138F4DD
:1007200092E4FB0190838850FA0180830895883118
:1007300038F493E4FB0190838051FA01808308959B
:0E07400094E4FB0190838851FA0180830895B0
:10074E000F931F93CF93DF93FC012085222371F02B
:10075E002130B9F4EC018C01085F1F4FCE010E94CD
:10076E00120521960C171D07C9F70BC0EC018C0161
:10077E00085F1F4FCE010E9418052196C017D107A2
:0C078E00C9F7DF91CF911F910F910895E2
:10079A00662319F0613079F008954BB321E030E017
:1007AA00B90102C0660F771F8A95E2F7CB018095DF
:1007BA0084238BBB08954BB321E030E0B90102C01A
:1007CA00660F771F8A95E2F7CB01842B8BBB0895BE
:1007DA00662319F0613079F0089548B321E030E0DA
:1007EA00B90102C0660F771F8A95E2F7CB0180959F
:1007FA00842388BB089548B321E030E0B90102C0E0
:10080A00660F771F8A95E2F7CB01842B88BB089580
:10081A00662319F0613079F0089545B321E030E09C
:10082A00B90102C0660F771F8A95E2F7CB0180955E
:10083A00842385BB089545B321E030E0B90102C0A5
:10084A00660F771F8A95E2F7CB01842B85BB089543
:10085A00662319F0613079F0089542B321E030E05F
:10086A00B90102C0660F771F8A95E2F7CB0180951E
:10087A00842382BB089542B321E030E0B90102C06B
:10088A00660F771F8A95E2F7CB01842B82BB089506
:10089A00662319F0613079F008954AB321E030E017
:1008AA00B90102C0660F771F8A95E2F7CB018095DE
:1008BA0084238ABB08954AB321E030E0B90102C01B
:1008CA00660F771F8A95E2F7CB01842B8ABB0895BE
:1008DA00662319F0613079F0089547B321E030E0DA
:1008EA00B90102C0660F771F8A95E2F7CB0180959E
:1008FA00842387BB089547B321E030E0B90102C0E1
:10090A00660F771F8A95E2F7CB01842B87BB089580
:10091A00662319F0613079F0089544B321E030E09C
:10092A00B90102C0660F771F8A95E2F7CB0180955D
:10093A00842384BB089544B321E030E0B90102C0A6
:10094A00660F771F8A95E2F7CB01842B84BB089543
:10095A00662319F0613079F0089541B321E030E05F
:10096A00B90102C0660F771F8A95E2F7CB0180951D
:10097A00842381BB089541B321E030E0B90102C06C
:10098A00660F771F8A95E2F7CB01842B81BB089506
:10099A00CF93DF93EC01862F688361E00E94F40213
:0C09AA00CE010E941805DF91CF91089546
:1009B60029B330E0A90102C0559547958A95E2F71B
:0609C600CA0181700895D2
:1009CC0026B330E0A90102C0559547958A95E2F708
:0609DC00CA0181700895BC
:1009E20023B330E0A90102C0559547958A95E2F7F5
:0609F200CA0181700895A6
:1009F80020B330E0A90102C0559547958A95E2F7E2
:060A0800CA01817008958F
:100A0E00EC010E9429050E942805CE010E942A05AC
:060A1E00CE010E94260536
:0C0A240061E0FC0180810E94C002089586
:0C0A300060E0FC0180810E94C00208957B
:0C0A3C00EE0FFF1F0590F491E02D0994CF
:040A48000C9400000A
:040A4C000E94BC0048
:020A5000089507
:020A5200089505
:020A5400089503
:00000001FF
