:100000000C942A000C9424020C9424020C942402D4
:100010000C9424020C9424020C9424020C942402C8
:100020000C9424020C9424020C9424020C942402B8
:100030000C9424020C9424020C9424020C942402A8
:100040000C9424020C9424020C9424020C94240298
:100050000C94240211241FBECFE5D8E0DEBFCDBF33
:0C0060000E9436000C941902F894FFCFA7
:10006C00CF93DF93CDB7DEB728970FB6F894DEBFEA
:10007C000FBECDBF43E062E4CE0101960E949B000F
:10008C0042E063E4CE0103960E949B0047E063E4E8
:10009C00CE0105960E949B0046E064E4CE010796D3
:1000AC000E949B0080E49CE90197F1F700E911E0C4
:1000BC00CE0101960E94D70084EC99E0F8013197AB
:1000CC00F1F70197D9F7CE0101960E94F800CE0105
:1000DC0003960E94D70084EC99E0F8013197F1F770
:1000EC000197D9F7CE0103960E94F800CE01059630
:1000FC000E94D70084EC99E0F8013197F1F7019751
:10010C00D9F7CE0105960E94F800CE0107960E9401
:10011C00D70084EC99E0F8013197F1F70197D9F702
:0A012C00CE0107960E94F800C3CF31
:10013600CF93DF93EC016234A1F018F4613431F00F
:1001460030C06334C9F0643411F12BC081E4888374
:10015600498361E0842F0E949901CE010E94F80034
:1001660020C082E48883498361E0842F0E94B9011C
:10017600CE010E94F80015C083E48883498361E0BC
:10018600842F0E94D901CE010E94F8000AC084E49F
:100196008883498361E0842F0E94F901CE010E9481
:0801A600F800DF91CF910895EC
:1001AE00FC019081923471F018F4913431F008957D
:1001BE00933469F0943481F0089561E081810E9456
:1001CE001901089561E081810E943901089561E06D
:1001DE0081810E945901089561E081810E94790117
:0201EE00089572
:1001F000FC019081923471F018F4913431F008953B
:10020000933469F0943481F0089560E081810E9414
:100210001901089560E081810E943901089560E02C
:1002200081810E945901089560E081810E947901D5
:0202300008952F
:10023200662319F0613079F008954BB321E030E084
:10024200B90102C0660F771F8A95E2F7CB0180954C
:1002520084238BBB08954BB321E030E0B90102C087
:10026200660F771F8A95E2F7CB01842B8BBB08952B
:10027200662319F0613079F0089548B321E030E047
:10028200B90102C0660F771F8A95E2F7CB0180950C
:10029200842388BB089548B321E030E0B90102C04D
:1002A200660F771F8A95E2F7CB01842B88BB0895EE
:1002B200662319F0613079F0089545B321E030E00A
:1002C200B90102C0660F771F8A95E2F7CB018095CC
:1002D200842385BB089545B321E030E0B90102C013
:1002E200660F771F8A95E2F7CB01842B85BB0895B1
:1002F200662319F0613079F0089542B321E030E0CD
:10030200B90102C0660F771F8A95E2F7CB0180958B
:10031200842382BB089542B321E030E0B90102C0D8
:10032200660F771F8A95E2F7CB01842B82BB089573
:10033200662319F0613079F008954AB321E030E084
:10034200B90102C0660F771F8A95E2F7CB0180954B
:1003520084238ABB08954AB321E030E0B90102C088
:10036200660F771F8A95E2F7CB01842B8ABB08952B
:10037200662319F0613079F0089547B321E030E047
:10038200B90102C0660F771F8A95E2F7CB0180950B
:10039200842387BB089547B321E030E0B90102C04E
:1003A200660F771F8A95E2F7CB01842B87BB0895EE
:1003B200662319F0613079F0089544B321E030E00A
:1003C200B90102C0660F771F8A95E2F7CB018095CB
:1003D200842384BB089544B321E030E0B90102C014
:1003E200660F771F8A95E2F7CB01842B84BB0895B1
:1003F200662319F0613079F0089541B321E030E0CD
:10040200B90102C0660F771F8A95E2F7CB0180958A
:10041200842381BB089541B321E030E0B90102C0D9
:10042200660F771F8A95E2F7CB01842B81BB089573
:10043200EC010E9429020E942802CE010E942A0297
:06044200CE010E9426021B
:040448000C94000010
:04044C000E943400D6
:0204500008950D
:0204520008950B
:02045400089509
:00000001FF
