:100000000C9439000C94F00A0C94190B0C94420BCC
:100010000C94C00E0C94C00E0C94C00E0C94C00E28
:100020000C94C00E0C94C00E0C94C00E0C94C00E18
:100030000C94C00E0C94C00E0C94C00E0C94C00E08
:100040000C946B0B0C94C00E0C94C00E0C94C00E50
:100050000C94C00E006000628000620090001D924F
:10006000009000948000940098001DC0009800A1AA
:10007000800011241FBECFE5D8E0DEBFCDBFE4E590
:10008000F0E040E017C0B591A5913591259105911B
:1000900007FD0CC095918591EF01F92FE82F059090
:1000A0000D92A217B307D9F7FE0104C01D92A21743
:1000B000B307E1F7E137F40731F70E941E040C940F
:0600C000680EF894FFCF6A
:1000C600AEE0B0E0E9E6F0E00C943F0D4C016B01C8
:1000D6001A8219828FEF9FEF9C838B831E821D826B
:1000E60058874F833A872987A12CB12CD6016D906A
:1000F6007C90F301EA0DFB1D808181110FC0D601B2
:10010600ED93FC938081853209F0D3C13F01BFEFA7
:100116006B1A7B0AF6017182608219C0853279F307
:10012600B401082E000C990B0E94E3074FEFA41AA6
:10013600B40ADCCF8C32ACF08D32F9F489819A8125
:1001460081609A8389833196D601ED93FC93D6011B
:10015600ED91FC9180818B3269F789819A81846067
:10016600F0CF803221F489819A818860EACF833288
:1001760051F489819A818061E4CF803321F48981A9
:100186009A818260DECFB701C6010E94980A9E83DB
:100196008D8397FF0BC029813A81B1E02B273A83E3
:1001A60029839195819591099E838D8389819A8171
:1001B60080FF03C08D7F9A838983D601ED91FC91E0
:1001C600119780818E3249F43196ED93FC93B701F5
:1001D600C6010E94980A9C838B83C6010E94FF0C6D
:1001E600582ED601ED91FC918081082E000C990BBA
:1001F6000E947C0E893609F443C084F4833609F4E0
:1002060002C134F4853209F427C18136E1F030C1E8
:100216008436B1F188360CF4D9C02AC1803709F486
:100226009AC03CF48E3609F4BCC08F3609F461C01E
:100236001FC1853709F440C0883709F476C0833773
:1002460009F016C1F3C0652D70E0A701CE010B962B
:100256000E940000892B09F426C1D601ED91FC917C
:100266001197CF0101968D939C932081AE01455F36
:100276005F4FBE016F5F7F4FC4010E94000010C137
:10028600652D70E0970141E050E0CE010B960E948B
:10029600B205892B09F407C1F60180819181019687
:1002A60091838083AE01455F5F4FBE016F5F7F4FD5
:1002B600C4010E94D604F4C0652D70E0970140E0A9
:1002C60050E0CE010B960E94B205892B09F4EBC0D3
:1002D600D6018D919C91119701968D939C93AE01B9
:1002E600455F5F4FBE016F5F7F4FC4010E942F08BD
:1002F600D7C0652D70E0970140E050E0CE010B9627
:100306000E94B205892B09F4CEC0F6018081918145
:10031600019691838083AE01455F5F4FBE016F5F9B
:100326007F4FC4010E94E006BBC0652D70E09701B7
:1003360040E050E0CE010B960E94B205892B09F4ED
:10034600B2C0D601ED91FC911197CF0101968D9324
:100356009C9320811CC0970140E050E060EF70E064
:10036600CE010B960E94B205892B09F49CC0F601BA
:10037600808191810196918380838B859C85892BD1
:1003860029F420E030E04AE850E084C028E7AE01D6
:10039600455F5F4FBE016F5F7F4FC4010E946102E0
:1003A6007FC0A501400F511F652D70E09701CE015A
:1003B6000B960E940000892B09F475C0D6018D9119
:1003C6009C91119701968D939C9373C0652D70E057
:1003D600A701CE010B960E940000892B09F463C089
:1003E600D601ED91FC911197CF0101968D939C93C7
:1003F6002081AE01455F5F4FBE016F5F7F4FC40135
:100406000E9400004DC0B0E85B124DC0F60180812D
:100416009181019691838083D701ED91FC9111978B
:10042600CF0102968D939C93808120C0B0E85B1229
:100436003AC0F60180819181019691838083D7012C
:10044600ED91FC911197CF0102968D939C9340817B
:10045600518120E030E01EC0B0E85B1224C0F601F6
:10046600208131812F5F3F4F318320838B870DC0E1
:1004760085E28B87D6016D927C921A8219821E8242
:100486001D828FEF9FEF9C838B8321E030E0AE01CE
:10049600455F5F4FBE016F5F7F4FC4010E94C60A72
:1004A6008A0D9B1D07C0F60180819181019691837B
:0C04B6008083C5012E96EFE00C945B0DD6
:1004C200AFE0B0E0E7E6F2E00C943C0D1C016B01FA
:1004D2005A8349832B83FB01828193818480958097
:1004E20000811181A680B78097FD02C00D7F02C0F6
:1004F20081E090E0E981FA814080518062807380DE
:100502009801207133273D832C83740104FF08C0B6
:10051200411451046104710419F032E0E31AF10844
:10052200F801E870FF27FF83EE8303FF03C0F1E0C9
:10053200EF1AF108F6010084F185E02D3197FF876B
:10054200EE87EA0DFB1D10829C012E193F093987A7
:100552002887C801827099279B878A87EB818E2F13
:10056200EE0F990B9C01215431093D872C872E8572
:100572003F852230310530F48C819D81892B09F031
:1005820042C05CC0411451046104710461F18E8562
:100592009F8501979F878E87C2018F7099278A3026
:1005A200910514F4C09602C0895A9F4FEC85FD85CF
:1005B2007A9748F49C012062215631092A3131058B
:1005C20010F40E94730EEE85FF85EA0DFB1D8083F9
:1005D200F1E0EF1AF10884E0769467945794479417
:1005E2008A95D1F7C4CF888599858E0D9F1D1816DF
:1005F20019066CF21E141F040CF0BECFEA85FB85AF
:10060200EF2B29F6B9CFE981FA8180819181A2810C
:10061200B381892B8A2B8B2B89F0EE85FF85EA0D1E
:10062200FB1D31972B8120838E859F8502979F87A3
:100632008E87FC01EA0DFB1D80E38083EE81FF8142
:10064200EF2B59F02E853F85215031093F872E87A8
:10065200F901EA0DFB1D80E28083F6014085518598
:10066200415051092E853F85421B530BB9016A0D3A
:100672007B1D9401C1010E9466099C01F1018081E8
:10068200918190FF06C0F6018281938182179307C0
:0C0692000CF4C9012F96E2E10C94580D05
:10069E001F93CF93DF93EC0183ED90E30197F1F776
:1006AE0000C000001E8188810E946A0A91E0181322
:1006BE0090E0992379F161E08E81811160E08B8168
:1006CE000E949F0983ED90E30197F1F700C00000AF
:1006DE001E8188810E946A0A91E0811390E099231D
:1006EE0009F487C061E08E81811160E08C810E94E7
:1006FE009F0983ED90E30197F1F700C000001E8182
:10070E0088810E946A0A91E0811390E0911173C072
:10071E0012E07CC01E8189810E946A0A91E08113D9
:10072E0090E0992379F161E08E81811160E08B81F7
:10073E000E949F0983ED90E30197F1F700C000003E
:10074E001E8189810E946A0A91E0811390E09923AB
:10075E0009F453C061E08E81811160E08C810E94AA
:10076E009F0983ED90E30197F1F700C000001E8111
:10077E0089810E946A0A91E0811390E091113FC035
:10078E0015E044C01E818A810E946A0A91E081139D
:10079E0090E09923B1F161E08E81811160E08B814F
:1007AE000E949F0983ED90E30197F1F700C00000CE
:1007BE001E818A810E946A0A91E0811390E099233A
:1007CE0011F161E08E81811160E08C810E949F09A0
:1007DE0083ED90E30197F1F700C000001E818A813E
:1007EE000E946A0A91E0811390E091110EC018E008
:1007FE000DC011E00BC013E009C014E007C016E0F5
:10080E0005C01FEF03C017E001C019E06E818B8198
:10081E000E949F096E818C810E949F096E818D813D
:0E082E000E949F09812FDF91CF911F910895A5
:10083C00CF93DF93CDB7DEB761970FB6F894DEBFD9
:10084C000FBECDBF198281E08A8382E08B8383E067
:10085C008C83AA24A3940F2EF2E1CF2EF02D0F2E11
:10086C00F1E1EF2EF02D00E125E144E163E1CE0151
:10087C000B960E9476081F92812CA12C0F2EFDE066
:10088C00CF2EF02D0F2EFCE0EF2EF02D0BE02AE0FA
:10089C0049E068E0CE0105960E947F0600E027E063
:1008AC0043EA5DE060E080E40E94730D78940F9061
:1008BC00E12CF12C00E911E0CE010B960E944F03C4
:1008CC00082E000C990B28E833E1F8013197F1F769
:1008DC0021503109D1F786309105A1F48FEFE81A38
:1008EC00F80A83E0E82280E8F822FF20CCF481E0CB
:1008FC00E81AF1088CEFE82AFF24FA948FEFE81A33
:10090C00F80A0EC0049761F4E114F10421F081E0BF
:10091C00E81AF10805C00F2EF3E0EF2EF12CF02DA4
:10092C00A7010F2C000C660B770BCE0105960E94CD
:10093C00070AE1E0F0E0EC0FFD1FEE0DFF1D8081DA
:10094C000E94B40E61E0CE0105960E94390768E75B
:10095C0070E0CE0105960E94BA0DA7014F5F5F4F64
:10096C00052E000C660B770BCE0105960E94070A2C
:10097C008090900090909100A0909200B090930085
:10098C0060E2CE0105960E948E07C501B4010E945B
:10099C008B0EAB01BC01CE0105960E94070A8CCFD1
:1009AC00A2E0B0E0ECEDF4E00C943C0D3C016B01EA
:1009BC00FB0122813381A480B580808191819A834F
:1009CC00898386809780FA01208031804280538011
:1009DC00B201A10157FE07C044275527BA0142199D
:1009EC0053096409750937FD03C08D7F9A83898388
:1009FC00950157FC05C0898182FD02C083FF02C0AE
:100A0C0021503109CE0101967C010AE010E0C601AB
:100A1C000E941A0657FC03C0298122FF0AC00197C5
:100A2C00F401E80FF91F57FC02C02BE209C02DE2BC
:100A3C0007C023FF06C00197F401E80FF91F20E25D
:100A4C00208309811A81F601408551854150510955
:100A5C00481B590BB401680F791F9501C3010E9403
:100A6C0066099C01F3018081918190FF06C0F6011B
:100A7C0082819381821793070CF4C9012296E2E1DB
:040A8C000C94580D61
:100A90000FC00E94990E38F00E94A00E20F09523FE
:100AA00011F00C94AE0E0C94BD0E11240C94930E08
:100AB0000E94BB0B70F3959FC1F3950F50E0551F3B
:100AC000629FF001729FBB27F00DB11D639FAA27A3
:100AD000F00DB11DAA1F649F6627B00DA11D661FF2
:100AE000829F2227B00DA11D621F739FB00DA11D13
:100AF000621F839FA00D611D221F749F3327A00DCD
:100B0000611D231F849F600D211D822F762F6A2F68
:100B100011249F5750409AF0F1F088234AF0EE0FCD
:100B2000FF1FBB1F661F771F881F91505040A9F7FA
:100B30009E3F510580F00C94AE0E0C94930E5F3FD7
:100B4000E4F3983ED4F3869577956795B795F79536
:100B5000E7959F5FC1F7FE2B880F911D96958795AE
:040B600097F9089564
:100B6400CF93DF93DC01F90168387105F1F05CF48F
:100B74006138710561F164387105A1F1603871055E
:100B840009F051C02FC0603C710509F441C0603FB9
:100B94007105F1F1603A710509F045C0C081D18158
:100BA400CE0102969183808325C0C081D181CE017C
:100BB400029691838083452B39F04881042E000CE2
:100BC400550B660B770B1CC0488150E029C0C081CF
:100BD400D181CE01049691838083488159816A81B1
:100BE4007B810EC0C081D181CE0102969183808326
:100BF400452BA1F048815981052E000C660B770B1B
:100C04004D935D936D937C93139781E090E00DC0B9
:100C1400C081D181CE01029691838083488159811C
:100C240060E070E0EDCF80E090E0DF91CF91089537
:100C3400A0E0B0E0E0E2F6E00C943E0DDC01280117
:100C44001696AD90BC901797F7018081918112960A
:100C5400ED91FC9113971896CD91DC9119972197FA
:100C6400F7FF02C0E1E0F0E0CA0DDB1D1882690164
:100C7400A1E0B0E08F01021B130B4C01F2E08F22C4
:100C84009924052C000C66087708CE018A199B0963
:100C9400CA15DB0519F1411551056105710589F086
:100CA400CB01BA01A30192010E94DD0BCA01A62F58
:100CB400B72F605D6A9341E0C41AD108A901BC0151
:100CC400E4CF98012C0D3D1D121613064CF31C1491
:100CD4001D0434F48114910419F702C080E090E0FB
:100CE400AB2B31F4F701208131812F7E31832083B6
:0A0CF400CDB7DEB7E0E10C945A0D15
:100CFE004F925F926F927F928F92AF92CF92EF92BE
:100D0E000F931F93CF93DF93CDB7DEB73C01FC015A
:100D1E000083218342836383E482C5828C012C018C
:100D2E00F4E04F0E511C61E0F80181918F010E9499
:100D3E00D30904151505B9F761E08E2D0E94D3096C
:100D4E0061E08C2D0E94D30962E0C3010E94390735
:100D5E006A2D660F660F660F6062C3010E94390727
:100D6E0008EC10E0C8010197F1F7682D660F8F852A
:100D7E008C60682BC3010E943907C8010197F1F7F7
:100D8E0061E0C3010E94390780EE9EE20197F1F700
:100D9E0066E0C3010E943907DF91CF911F910F9139
:100DAE00EF90CF90AF908F907F906F905F904F901D
:020DBE00089596
:100DC000A2E0B0E0E6EEF6E00C94400D4C016B01C1
:100DD000FB012281338164807580808191819A83B7
:100DE0008983A680B78037FD03C08D7F9A8389836E
:100DF000FA014081518162817381CE0101967C01AB
:100E000008E010E09301C6010E941A06298124FF20
:100E100006C00197F501E80FF91F20E3208329811F
:100E200023FF06C00197F501E80FF91F20E2208398
:100E300009811A81F6014085518541505109481BAD
:100E4000590BB501680F791F9301C4010E9466090F
:100E50009C01F4018081918190FF06C0F60182819E
:100E60009381821793070CF4C9012296EEE00C944B
:020E70005C0D17
:100E72008F929F92AF92BF92CF92DF92EF92FF92A8
:100E82000F931F93CF93DF936C01C62F60E0FC0199
:100E920084810E949F09860156016894882482F801
:100EA200912CD0E07E01BE01082C02C07595679599
:100EB2000A94E2F76170F50181915F010E949F0936
:100EC200FFEF8F1A9F0A88E08816910459F7C6012E
:100ED2000E94CF0DC0E0D0E0B7010C2E02C0759584
:100EE20067950A94E2F76170F80181918F010E947F
:100EF2009F092196C430D10579F7C6010E94CF0D12
:100F0200DF91CF911F910F91FF90EF90DF90CF90E3
:0A0F1200BF90AF909F908F9008955C
:100F1C008F929F92AF92BF92CF92DF92EF92FF92FD
:100F2C000F931F93CF93DF936C01C62F61E0FC01ED
:100F3C0084810E949F09860156016894882482F856
:100F4C00912CD0E07E01BE01082C02C075956795EE
:100F5C000A94E2F76170F50181915F010E949F098B
:100F6C00FFEF8F1A9F0A88E08816910459F7C60183
:100F7C000E94CF0DC0E0D0E0B7010C2E02C07595D9
:100F8C0067950A94E2F76170F80181918F010E94D4
:100F9C009F092196C430D10579F7C6010E94CF0D67
:100FAC00DF91CF911F910F91FF90EF90DF90CF9039
:0A0FBC00BF90AF909F908F900895B2
:100FC6000F931F93CF93DF93DB01109719F48FEFE5
:100FD6009FEF3DC02D913C91119730FF25C016968D
:100FE6004D915C91179714962D913C911597421748
:100FF600530778F41296ED91FC911397808312961D
:101006002D913C9113972F5F3F4F13963C932E9350
:10101600129716962D913C9117972F5F3F4F179673
:101026003C932E93169713C01C96ED91FC911D9739
:10103600309769F2EB01092F182F0995892B39F69C
:101046008E819F8101969F838E83812F902FDF91C2
:08105600CF911F910F91089545
:10105E00A2E0B0E0E5E3F8E00C94400D5C016B011A
:10106E00FB012281338184809580808191819A83D6
:10107E0089836680778037FD03C08D7F9A8389834D
:10108E00FA014081518162817381CE0101967C010A
:10109E000AE010E09401C6010E941A0609811A8125
:1010AE00F6014085518541505109481B590BB3013A
:1010BE00680F791F9401C5010E9466099C01F50114
:1010CE008081918190FF06C0F60182819381821703
:0E10DE0093070CF4C9012296EEE00C945C0D11
:1010EC00AF92CF92EF920F93CF93DF93FC01892BAA
:1010FC0069F1C22FD42F862F60834183228303830F
:10110C00E482C582A68260E00E94D30960E08D2F44
:10111C000E94D30960E08C2F0E94D30961E0802FDC
:10112C000E94D30961E08E2D0E94D30961E08C2DC1
:10113C000E94D3096A2D802F0E949F096A2D8E2D43
:10114C000E949F096A2D8C2D0E949F09DF91CF91DF
:0A115C000F91EF90CF90AF9008952F
:10116600E89409C097FB3EF490958095709561953B
:101176007F4F8F4F9F4F9923A9F0F92F96E9BB27F1
:101186009395F695879577956795B795F111F8CF6D
:10119600FAF4BB0F11F460FF1BC06F5F7F4F8F4FD8
:1011A6009F4F16C0882311F096E911C0772321F0CE
:1011B6009EE8872F762F05C0662371F096E8862F66
:1011C60070E060E02AF09A95660F771F881FDAF7BD
:0A11D600880F9695879597F9089504
:1011E000A2E8B0E0E6EFF8E00C94420D5C014A01A1
:1011F000CF57DF4F79836883C158D040C12CD12CA1
:10120000CF57DF4FE881F981C158D04080818823D2
:10121000E9F07401860120E830E0AE014F5F5F4FD6
:10122000BE016F577F4FC5010E9463008C0D9D1D4D
:101230008C159D054CF48FE490E0909361008093B1
:1012400060008FEF9FEF03C06C01DACFC601CE576D
:08125000DF4FECE00C945E0D91
:10125800A0E1B0E0E2E3F9E00C94480DFB01BA012B
:10126800AE014F5F5F4F7A0140E1D7011D924A9569
:10127800E9F742E051E05A8349839C838B83F7FF67
:1012880009C08FE490E090936100809360008FEF35
:101298009FEF14C0A9018C013197FE83ED83C7012C
:1012A8000E948B0D4F8158852D813E81421753072F
:1012B80008F49A01F801E20FF31F10826096E6E045
:0412C8000C94640D11
:1012CC00A0E0B0E0ECE6F9E00C94420D6C015B019F
:1012DC007A01E901480181E08822992400FD03C0CC
:1012EC004217530750F0A701B501C6010E941F0D0C
:1012FC00EC16FD0610F0C70117C08E010E191F0960
:10130C000115110541F0B60180E290E00E94E3075F
:10131C0001501109F5CF8114910429F4A701B501ED
:10132C00C6010E941F0DCE01CDB7DEB7ECE00C94C8
:02133C005E0D44
:10133E001F93CF93DF9300D0CDB7DEB7162FAE013C
:10134E004E5F5F4FBE016F5F7F4F0E94940B89818E
:10135E00823471F018F4813431F018C0833469F09E
:10136E00843481F013C0612F8A810E94FF0B0EC05E
:10137E00612F8A810E941F0C09C0612F8A810E94F1
:10138E003F0C04C0612F8A810E945F0C0F900F905A
:08139E00DF91CF911F9108952A
:1013A6001F93CF93DF9300D0CDB7DEB7162FAE01D4
:1013B6004E5F5F4FBE016F5F7F4F0E94940B898126
:1013C600823471F018F4813431F018C0833469F036
:1013D600843481F013C0612F8A810E947F0C0EC075
:1013E600612F8A810E949F0C09C0612F8A810E9409
:1013F600BF0C04C0612F8A810E94DF0C0F900F90F2
:08140600DF91CF911F910895C1
:10140E00EF92FF920F931F93CF93DF93CDB7DEB77B
:10141E002C970FB6F894DEBF0FBECDBF7C017F9325
:10142E006F935F934F9384E990E09F938F938E0118
:10143E000F5F1F4F1F930F930E94E10DB801C7015D
:10144E000E94BA0D0FB6F894DEBF0FBECDBF2C961C
:10145E000FB6F894DEBF0FBECDBFDF91CF911F91B7
:08146E000F91FF90EF9008952B
:101476000E94C30B88F09F5798F0B92F9927B75150
:10148600B0F0E1F0660F771F881F991F1AF0BA9522
:10149600C9F714C0B13091F00E94920EB1E00895E0
:1014A6000C94920E672F782F8827B85F39F0B93FD2
:1014B600CCF3869577956795B395D9F73EF49095D5
:0E14C6008095709561957F4F8F4F9F4F0895D1
:1014D400CF93DF9300D0CDB7DEB7AE014E5F5F4F41
:1014E400BE016F5F7F4F0E94940B8981823469F043
:1014F40018F4813431F015C0833459F0843469F020
:1015040010C08A810E943C0E0CC08A810E94470E42
:1015140008C08A810E94520E04C08A810E945D0E16
:0C15240000C00F900F90DF91CF91089550
:10153000DC01ED91FC91119780818A3221F080E0ED
:1015400090E03AE00EC03196ED93FC93DB01ED9113
:10155000FC911197CF0102968D939C93808191818C
:101560000895ED91FC911197208120532A3068F461
:10157000389FA001399F500D1124CA01820F911D7F
:0C15800031961196FC93EE93ECCF089589
:10158C00A0E0B0E0ECECFAE00C94440D7C01FB0123
:10159C00EA01C901A280B380C480D5800081118189
:1015AC00209711F4C3E8D0E0009719F4CE010E9403
:1015BC00210EB7FC04C0A816B90608F4C5019601A3
:1015CC00AC01BE01C7010E946609CDB7DEB7EAE0E7
:0415DC000C94600DFE
:1015E0001F920F920FB60F9211242F933F934F9398
:1015F0005F936F937F938F939F93AF93BF93EF937B
:10160000FF93E0919C00F0919D00309709F00995BF
:10161000FF91EF91BF91AF919F918F917F916F91CA
:101620005F914F913F912F910F900FBE0F901F90A0
:0216300018950B
:101632001F920F920FB60F9211242F933F934F9345
:101642005F936F937F938F939F93AF93BF93EF9328
:10165200FF93E0919A00F0919B00309709F0099571
:10166200FF91EF91BF91AF919F918F917F916F9178
:101672005F914F913F912F910F900FBE0F901F904E
:021682001895B9
:101684001F920F920FB60F9211242F933F934F93F3
:101694005F936F937F938F939F93AF93BF93EF93D6
:1016A400FF93E0919800F0919900309709F0099523
:1016B400FF91EF91BF91AF919F918F917F916F9126
:1016C4005F914F913F912F910F900FBE0F901F90FC
:0216D400189567
:1016D6001F920F920FB60F9211242F933F934F93A1
:1016E6005F936F937F938F939F93AF93BF93EF9384
:1016F600FF93E0919E00F0919F00309709F00995C5
:10170600FF91EF91BF91AF919F918F917F916F91D3
:101716005F914F913F912F910F900FBE0F901F90A9
:02172600189514
:101728006115710519F14115510501F1883030F441
:1017380091E4FB019083FA0180830895803138F4A5
:1017480092E4FB0190838850FA01808308958831E0
:1017580038F493E4FB0190838051FA018083089563
:0E17680094E4FB0190838851FA018083089578
:1017760057FD9058440F551F59F05F3F71F047953C
:10178600880F97FB991F61F09F3F79F08795089521
:10179600121613061406551FF2CF4695F1DF08C040
:1017A600161617061806991FF1CF8695710561055D
:0417B60008940895F6
:1017BA00A1E21A2EAA1BBB1BFD010DC0AA1FBB1F4B
:1017CA00EE1FFF1FA217B307E407F50720F0A21BBD
:1017DA00B30BE40BF50B661F771F881F991F1A942A
:1017EA0069F760957095809590959B01AC01BD0154
:0417FA00CF0108957E
:1017FE00662319F0613079F008954BB321E030E0A3
:10180E00B90102C0660F771F8A95E2F7CB0180956A
:10181E0084238BBB08954BB321E030E0B90102C0A5
:10182E00660F771F8A95E2F7CB01842B8BBB089549
:10183E00662319F0613079F0089548B321E030E065
:10184E00B90102C0660F771F8A95E2F7CB0180952A
:10185E00842388BB089548B321E030E0B90102C06B
:10186E00660F771F8A95E2F7CB01842B88BB08950C
:10187E00662319F0613079F0089545B321E030E028
:10188E00B90102C0660F771F8A95E2F7CB018095EA
:10189E00842385BB089545B321E030E0B90102C031
:1018AE00660F771F8A95E2F7CB01842B85BB0895CF
:1018BE00662319F0613079F0089542B321E030E0EB
:1018CE00B90102C0660F771F8A95E2F7CB018095AA
:1018DE00842382BB089542B321E030E0B90102C0F7
:1018EE00660F771F8A95E2F7CB01842B82BB089592
:1018FE00662319F0613079F008954AB321E030E0A3
:10190E00B90102C0660F771F8A95E2F7CB01809569
:10191E0084238ABB08954AB321E030E0B90102C0A6
:10192E00660F771F8A95E2F7CB01842B8ABB089549
:10193E00662319F0613079F0089547B321E030E065
:10194E00B90102C0660F771F8A95E2F7CB01809529
:10195E00842387BB089547B321E030E0B90102C06C
:10196E00660F771F8A95E2F7CB01842B87BB08950C
:10197E00662319F0613079F0089544B321E030E028
:10198E00B90102C0660F771F8A95E2F7CB018095E9
:10199E00842384BB089544B321E030E0B90102C032
:1019AE00660F771F8A95E2F7CB01842B84BB0895CF
:1019BE00662319F0613079F0089541B321E030E0EB
:1019CE00B90102C0660F771F8A95E2F7CB018095A9
:1019DE00842381BB089541B321E030E0B90102C0F8
:1019EE00660F771F8A95E2F7CB01842B81BB089592
:1019FE00CF93DF93EC0190E0E92FF0E0EE0FFF1FA5
:101A0E00EE59FF4F8081811102C081810EC0A881E5
:101A1E00B9812C91821305C091811196B983A88347
:101A2E0001C09F5F9B3040F3892FDF91CF910895C6
:101A3E00A0E0B0E0E5E2FDE00C94460D6C01EB0198
:101A4E008A017B01E40EF51ECE15DF0541F089916A
:101A5E00B601082E000C990B0E94E307F5CFC801C2
:0A1A6E00CDB7DEB7E8E00C94620D7E
:101A78002F923F924F925F926F927F928F929F9296
:101A8800AF92BF92CF92DF92EF92FF920F931F9384
:101A9800CF93DF93CDB7DEB7CA1BDB0B0FB6F89435
:081AA800DEBF0FBECDBF0994A3
:101AB0002A88398848885F846E847D848C849B84DE
:101AC000AA84B984C884DF80EE80FD800C811B81EC
:101AD000AA81B981CE0FD11D0FB6F894DEBF0FBE1B
:061AE000CDBFED010895E9
:101AE600EF92FF920F93CF937A01C22F402F16B831
:101AF6000E942F0EF0929F00E0929E0086B1C82BA6
:101B0600C6B9379A339ACF910F91FF90EF90089507
:101B1600A2E0B0E0E1E9FDE00C944A0D8C015A83A5
:101B26004983AE014F5F5F4F0E94F008F8012081A4
:101B360024FF02C08FEF9FEF2296E4E00C94660D1F
:101B46000E94040E20E030E040EA50E40E94B90E04
:101B560020E030E040E85AE30E94B90E609390001E
:0E1B66007093910080939200909393000895E5
:101B74000F931F93CF93DF93EB016881662341F0AA
:101B84008C012196C8010E948E0769916111FACFD8
:0A1B9400DF91CF911F910F9108958A
:101B9E00CF93DF93EC0161E08D810E949F0980E479
:101BAE009FE10197F1F760E08D810E949F09DF911F
:041BBE00CF91089526
:101BC200A0E0B0E0E7EEFDE00C944C0DAE01475F03
:101BD2005F4F6F8178858D819E810E94A70EE2E022
:041BE2000C94680DEA
:101BE600092E0394000C11F4882352F0BB0F40F425
:101BF600BF2B11F460FF04C06F5F7F4F8F4F9F4F65
:021C060008953F
:101C08000E94130E24E6AC01249FC001259F900D6D
:0E1C18001124BC0180E090E00E94B308089502
:101C26008091A000882339F085B190E0880F991F34
:0C1C3600880F991F089584B195B108959E
:101C4200FC01AF014F5F5F4F2081222311F0FA01A7
:0C1C5200F8CF9F01281B390BC901089531
:101C5E0017B897B1892B87B9442319F04093A00088
:0A1C6E003D9A87B1682B67B908950D
:101C780029B330E0A90102C0559547958A95E2F746
:061C8800CA0181700895FD
:101C8E0026B330E0A90102C0559547958A95E2F733
:061C9E00CA0181700895E7
:101CA40023B330E0A90102C0559547958A95E2F720
:061CB400CA0181700895D1
:101CBA0020B330E0A90102C0559547958A95E2F70D
:061CCA00CA0181700895BB
:101CD000EC010E94C70E0E94C60ECE010E94C80EE3
:061CE000CE010E94C40EBB
:101CE6009C01215631092A31310510F48F75992747
:021CF60008954F
:101CF8009C01215431092A31310508F48062089584
:0E1D080097B1907E97B997B1892B87B908954E
:0E1D16000E943B0A6894B1110C94930E08953C
:0E1D2400E894BB2766277727CB0197F908952F
:0E1D320000240A9416161706180609060895CE
:0E1D400000240A9412161306140605060895D0
:0E1D4E009A01AB016FEF7FE70E942C09089508
:0C1D5C0097F99F6780E870E060E0089550
:0A1D68000E94840E0E94C20E08952E
:081D72000E9448050C94F30DDA
:061D7A009FEF80EC0895CC
:041D80000C940000BF
:041D8400369A0895EE
:041D88000E94610054
:021D8C000895B8
:021D8E000895B6
:021D90000895B4
:101D920068076C094C836A9074A07AC000806888D6
:061DA20000846C82008148
:0B1DA80053454E534F52204E4F2E006B
:071DB300286E756C6C29001D
:061DBA00286E696C29008F
:041DC000256C64002A
:00000001FF
