:100000000C942D000C943E010C9467010C9490010B
:100010000C944F030C944F030C944F030C944F0318
:100020000C944F030C944F030C944F030C944F0308
:100030000C944F030C944F030C944F030C944F03F8
:100040000C944F030C944F030C944F030C944F03E8
:100050000C944F0300600067800011241FBECFE5A1
:10006000D8E0DEBFCDBFE4E5F0E040E017C0B591D9
:10007000A59135912591059107FD0CC0959185912C
:10008000EF01F92FE82F05900D92A217B307D9F7CA
:10009000FE0104C01D92A217B307E1F7E935F4078A
:0E00A00031F70E94E0020C942E03F894FFCF7B
:1000AE00F894863031F08730D9F0853081F178942C
:1000BE00089560FF04C095B7916095BF03C095B7D2
:1000CE009E7F95BF61FF04C095B7926095BF03C038
:1000DE0095B79D7F95BF509365004093640024C0F3
:1000EE0060FF04C095B7946095BF03C095B79B7F22
:1000FE0095BF61FF04C095B7986095BF03C095B7D3
:10010E00977F95BF50936300409362000DC060FFD0
:10011E0004C094B7906494BF03C094B79F7B94BF00
:10012E0050936100409360004BB721E030E0B9017D
:10013E0002C0660F771F8A95E2F7CB01842B8BBF27
:04014E007894089504
:100152001F93CF93DF9300D0CDB7DEB7162FAE013A
:100162004E5F5F4FBE016F5F7F4F0E94B901898171
:10017200823471F018F4813431F018C0833469F09C
:10018200843481F013C0612F8A810E94E0010EC085
:10019200612F8A810E94000209C0612F8A810E9418
:1001A200200204C0612F8A810E9440020F900F90AA
:0801B200DF91CF911F91089528
:1001BA001F93CF93DF9300D0CDB7DEB7162FAE01D2
:1001CA004E5F5F4FBE016F5F7F4F0E94B901898109
:1001DA00823471F018F4813431F018C0833469F034
:1001EA00843481F013C0612F8A810E9460020EC09C
:1001FA00612F8A810E94800209C0612F8A810E9430
:10020A00A00204C0612F8A810E94C0020F900F9041
:08021A00DF91CF911F910895BF
:10022200CF93DF9300D0CDB7DEB7AE014E5F5F4F05
:10023200BE016F5F7F4F0E94B9018981823469F0EC
:1002420018F4813431F014C0833459F0843469F0E5
:100252000FC08A810E9402030BC08A810E940D0393
:1002620007C08A810E94180303C08A810E94230367
:0A0272000F900F90DF91CF910895D7
:10027C001F920F920FB60F9211242F933F934F930F
:10028C005F936F937F938F939F93AF93BF93EF93F2
:10029C00FF93E0916400F0916500309709F00995A7
:1002AC00FF91EF91BF91AF919F918F917F916F9142
:1002BC005F914F913F912F910F900FBE0F901F9018
:0202CC00189583
:1002CE001F920F920FB60F9211242F933F934F93BD
:1002DE005F936F937F938F939F93AF93BF93EF93A0
:1002EE00FF93E0916200F0916300309709F0099559
:1002FE00FF91EF91BF91AF919F918F917F916F91F0
:10030E005F914F913F912F910F900FBE0F901F90C5
:02031E00189530
:100320001F920F920FB60F9211242F933F934F936A
:100330005F936F937F938F939F93AF93BF93EF934D
:10034000FF93E0916000F0916100309709F009950A
:10035000FF91EF91BF91AF919F918F917F916F919D
:100360005F914F913F912F910F900FBE0F901F9073
:020370001895DE
:100372006115710519F14115510501F1883030F40B
:1003820091E4FB019083FA0180830895803138F46F
:1003920092E4FB0190838850FA01808308958831AA
:1003A20038F493E4FB0190838051FA01808308952D
:0E03B20094E4FB0190838851FA018083089542
:1003C000662319F0613079F008954BB321E030E0F5
:1003D000B90102C0660F771F8A95E2F7CB018095BD
:1003E00084238BBB08954BB321E030E0B90102C0F8
:1003F000660F771F8A95E2F7CB01842B8BBB08959C
:10040000662319F0613079F0089548B321E030E0B7
:10041000B90102C0660F771F8A95E2F7CB0180957C
:10042000842388BB089548B321E030E0B90102C0BD
:10043000660F771F8A95E2F7CB01842B88BB08955E
:10044000662319F0613079F0089545B321E030E07A
:10045000B90102C0660F771F8A95E2F7CB0180953C
:10046000842385BB089545B321E030E0B90102C083
:10047000660F771F8A95E2F7CB01842B85BB089521
:10048000662319F0613079F0089542B321E030E03D
:10049000B90102C0660F771F8A95E2F7CB018095FC
:1004A000842382BB089542B321E030E0B90102C049
:1004B000660F771F8A95E2F7CB01842B82BB0895E4
:1004C000662319F0613079F008954AB321E030E0F5
:1004D000B90102C0660F771F8A95E2F7CB018095BC
:1004E00084238ABB08954AB321E030E0B90102C0F9
:1004F000660F771F8A95E2F7CB01842B8ABB08959C
:10050000662319F0613079F0089547B321E030E0B7
:10051000B90102C0660F771F8A95E2F7CB0180957B
:10052000842387BB089547B321E030E0B90102C0BE
:10053000660F771F8A95E2F7CB01842B87BB08955E
:10054000662319F0613079F0089544B321E030E07A
:10055000B90102C0660F771F8A95E2F7CB0180953B
:10056000842384BB089544B321E030E0B90102C084
:10057000660F771F8A95E2F7CB01842B84BB089521
:10058000662319F0613079F0089541B321E030E03D
:10059000B90102C0660F771F8A95E2F7CB018095FB
:1005A000842381BB089541B321E030E0B90102C04A
:1005B000660F771F8A95E2F7CB01842B81BB0895E4
:1005C00069E086E690E00E94F40245E453E061E0D1
:1005D00086E00E94570086E690E00E94390380E49E
:0805E0009CE90197F1F7FFCF40
:1005E800CF93DF93EC01862F688361E00E94DD00E2
:0C05F800CE010E943F03DF91CF910895D7
:100604009BB321E030E002C0220F331F8A95E2F74A
:0606140029272BBB08950D
:10061A0098B321E030E002C0220F331F8A95E2F737
:06062A00292728BB0895FA
:1006300095B321E030E002C0220F331F8A95E2F724
:06064000292725BB0895E7
:1006460092B321E030E002C0220F331F8A95E2F711
:06065600292722BB0895D4
:10065C00EC010E9454030E945303CE010E945503E7
:06066C00CE010E945103C3
:0C06720061E0FC0180810E94A900089555
:0C067E0060E0FC0180810E94A90008954A
:0A068A0086E690E00E944A030895FE
:0A069400FC0180810E94110108950D
:04069E000C940000B8
:0406A2000E9455005D
:0206A6000895B5
:0206A8000895B3
:0206AA000895B1
:00000001FF
